:020000040800F2
:1000000030C50020450100089D2F0008A9200008E8
:10001000992F0008051F000879350008000000002E
:100020000000000000000000000000000D32000889
:10003000E11F000800000000B12F0008D9320008BD
:100040005F0100085F0100085F0100085F01000810
:100050005F0100085F0100085F0100085F01000800
:100060005F0100085F0100085F010008211F000810
:100070005F0100085F0100085F0100085F010008E0
:100080005F0100085F0100085F0100085F010008D0
:10009000553500085F0100085F0100085F01000896
:1000A0005F0100085F0100085F0100085F010008B0
:1000B0005F0100085F0100085F0100085F010008A0
:1000C0005F0100085F0100085F0100085F01000890
:1000D0005F01000805340008753400085F0100085E
:1000E0005F0100085F0100085F0100085F01000870
:1000F0005F0100085F0100085F0100085F01000860
:100100005F0100085F0100085F0100085F0100084F
:100110005F0100085F0100085F0100085F0100083F
:100120005F0100085F0100085F0100085F0100082F
:10013000DFF80CD000F0A2FE004800479DB6000892
:1001400030C500200648804706480047FEE7FEE726
:10015000FEE7FEE7FEE7FEE7FEE7FEE7FEE7FEE777
:10016000ED3200083101000800487047D4F3000860
:1001700010B50446FFF7F8FF0068005D00F00100CD
:1001800010BD40EA01039B0703D009E008C9121F14
:1001900008C0042AFAD203E011F8013B00F8013B41
:1001A000521EF9D27047D2B201E000F8012B491E6D
:1001B000FBD270470022F6E710B513460A46044604
:1001C0001946FFF7F0FF204610BD30B505462A4618
:1001D0000B4612F8010B13F8014B08B1A042F8D0FE
:1001E0001CB1002802D06D1CF1E7284630BD10B5C7
:1001F000044604E00B7800F8013B03B1491C521E91
:10020000F8D2204610BDCAB2401E10F8011F8A4223
:1002100002D00029F9D100207047421C10F8011BC0
:100220000029FBD1801A704710B5002200E0521C53
:10023000835C8C5CA34201D1002BF8D1D8B2E1B22F
:10024000401A10BD30B504460020034600E05B1C98
:10025000934203D2E05CCD5C401BF8D030BD10B5BA
:10026000044600E0401C0378002BFBD100E0401C5A
:10027000521E04D311F8013B0370002BF7D100216B
:100280000170204610BD30B503461D783DB10A46C9
:1002900012F8014B1CB1AC42FAD15B1CF5E7181AFD
:1002A00030BD30B50546002008E00A4602E0A34212
:1002B00007D0521C1378002BF9D1401C2C5C002C69
:1002C000F3D130BD0FB400B58DB010A909900B90DB
:1002D00000914FF0FF300A9000200C9005480690E6
:1002E000054807906A4609A80F9900F017FC0DB061
:1002F0005DF814FB390B0008570B00082DE9FF5F70
:100300001D464FF0FF3BD5E9014691465F464FF051
:100310000008A9697F1C01988847296A8246884796
:100320000028F6D1BAF1FF3F0CD024F4C064002EAF
:1003300019DD600614D5BAF12B0F09D0BAF12D0FD3
:100340000ED103E0584604B0BDE8F09F44F4806449
:10035000A9697F1C01988847761E8246002E02DD1F
:10036000BAF1300F03D0B9F1000F26D032E0A969FD
:10037000761E44F400747F1C019888478246002E44
:1003800005DDBAF1780F06D0BAF1580F03D0B9F1F4
:10039000000F10D01EE0B9F1000F02D0B9F1100F1C
:1003A00018D1A969761E24F400747F1C019888472F
:1003B0008246102002E0082000E00A20814609E081
:1003C00008FB0908A969761E44F400747F1C019893
:1003D00088478246002E05DD4946504600F089FBDD
:1003E0000028EDDAE96901988847A00502D46FF08A
:1003F0000100A8E7E00725D1600613D5600502D506
:10040000C8F1000000E0404629680A1D2A6009681A
:10041000220501D5087015E0220701D5088011E0FA
:1004200008600FE02868011D29600068210502D5D9
:1004300080F8008006E0210702D5A0F8008001E0E6
:10044000C0F8008038467EE72DE9FF5FD2E901A7BA
:100450004FF00008916999461446DDF838B04646D9
:1004600001988847054659EA0B0005D009E0A169C3
:10047000761C019888470546216A28468847002847
:10048000F5D1681C03D05FEACA7005D015E04FF0C3
:10049000FF3004B0BDE8F09F2068011D2160D0F856
:1004A00000800AE05FEACA7001D108F8015BA16927
:1004B000761C7F1E019888470546002F1ADD681CB0
:1004C00018D0B9F1000F0DD0E81705EBD06042113C
:1004D00020F01F0059F822102A1A012090400142F2
:1004E000E0D107E0BBF1000FDCD1216A2846884744
:1004F0000028D7D0E16901988847BBF1000F07D1E8
:10050000002E05DD5FEACA7002D1002188F80010D4
:10051000A068B84203DDBBF1000F03D017B16FF044
:100520000100B6E73046B4E72DE9F04791460F46A3
:1005300080460446002614F8015B2DB1FFF714FE37
:100540000068405DC007F6D12B2D02D02D2D18D0AC
:10055000641E4A463946204600F00EFB27B1396832
:10056000A14201D1C7F8008071054FF002040BD5FC
:100570004042002803DD0EF055FA0460A007BDE8F4
:10058000F08746F48066E4E70028F8DA0EF04AFACD
:1005900004606FF00040F2E7F0B480EA0102D40F8B
:1005A0004200B2EB410F02D20246084611464A0011
:1005B00042D0C30DDDB2C1F3C752AD1A202D35DADA
:1005C000C1F3160141F4000204B15242C5F1200604
:1005D00002FA06F12A411044B3EBD05F23D0C4B134
:1005E000012DA0EBC35009DCF0BC4FF0004202EA41
:1005F000C352DBB200F5000000F016BB400000F172
:10060000807000EBC350A0F1807040EAD1704900C7
:1006100009E0490841EAC071A0EBC35000F50000B1
:10062000400800EBC350F0BC00F0F5BA6142012273
:1006300002EB4101001BF6E7F0BC704781F000417E
:10064000AAE780F00040A7E780EA010210B502F0B7
:100650000043400022D04A001FD0010E01EB12617E
:10066000C0F35600C2F3560240F4000042F4000208
:10067000A0FB022000047F39140400D0401C50EA83
:10068000124001D44000491EC2B20C0604EBD01047
:10069000401C4008802A02D003E0002010BD20F05A
:1006A0000100002900DA0020184310BD30B480EAB0
:1006B000010202F0004530F0004221F0004013D06A
:1006C00090B1C30DD40DC2F31601C0F31600E41AA5
:1006D00041F4000140F400027D34914201D3641CD6
:1006E00000E04900002C02DA30BC002070474FF4D3
:1006F00000000023914201D3891A034340084FEAC6
:100700004101F7D151B1914202D14FF0004105E0D2
:1007100002D24FF0010101E06FF0010103EBC45080
:10072000284430BC00F077BA2DE9FE4F804681EABC
:100730000300C00F0C46009021F0004123F000455B
:10074000B8EB0200A94105D24046214690461C461E
:100750000B46024623F00040104347D0270DC7F355
:100760000A00C3F30A510290401A019040286BDA44
:10077000C3F3130040F4801B0098924620B100237D
:10078000D2EB030A63EB0B0B01985946C0F1400210
:10079000504600F08DF906460D4650465946019ADE
:1007A00000F095F910EB08006141002487EA11522E
:1007B00084EAE7731A4340D0009A62B3019A012A8F
:1007C0004FEA075215DC001B61EB02014FF00042BB
:1007D00002EA0752CDE90042001C41F58011324681
:1007E0002B4600F05EFA03B0BDE8F08F404621468C
:1007F000F9E7001B61EB0201001C41F580130018B2
:100800005B412018A2F5001747EB030140EAD570C1
:10081000B6196D4111E06D084FEA360645EAC0751C
:100820004FEA0752001B61EB0201001C41F58011E9
:1008300049084FEA30000019514132462B4603B0B7
:10084000BDE8F04F00F01EBA0098012240000023DE
:10085000D0EB020263EBE073009821464FEAE074AC
:10086000B8EB000061EB0401E9E783F000435BE7CC
:1008700081F0004158E72DE9FE4F81EA030404F0BE
:10088000004421F0004100944FF0000B23F000439E
:1008900050EA01045ED052EA03045BD0C3F30A5469
:1008A000C1F30A552C44A4F2F3340194A0FB025482
:1008B000C1F3130141F48011C3F3130343F4801314
:1008C00001FB024400FB034E840A970A44EA815468
:1008D00047EA8357A4FB076802958D0A05FB078545
:1008E0004FEA932C04FB0C542705029D4FEA06584F
:1008F00047EA1637B5EB08056EEB070C870E920E2C
:1009000047EA811742EA8312A7FB0201B6EB0B010B
:1009100064EB00042B0D43EA0C335E1844EB1C50CF
:10092000DA465146E7FB0201C5F313044FEA0B33E5
:1009300043EA14534FEA0432019C43EA0603A4F14C
:100940000C040294009CCDE900B400F0AAF903B0B5
:10095000BDE8F08F00200146F9E7002801DBC0F177
:100960000040002901DBC1F10041814201D9012091
:10097000704700207047C10F80EAE0700844CA0742
:100980009623002100F050B996230022114600F072
:100990004BB900F0004220F00040C10DC0F316003A
:1009A00040F400007F2901DA00207047962903DC1B
:1009B000C1F19601C84001E096398840002AF4D080
:1009C0004042704700F0004230F000400AD0C10DB4
:1009D00001F56071C0F3160042EA0151C2084007F8
:1009E0001143704700200146704701F0004330B4C6
:1009F00021F0004150EA010206D00A0DA2F5607212
:100A0000C1F31301002A02DC30BC00207047440F00
:100A100044EAC104C100E01830BC00EBC25000F051
:100A2000FAB830B50B46014600202022012409E027
:100A300021FA02F59D4205D303FA02F5491B04FA97
:100A400002F52844151EA2F10102F1DC30BD2DE9AA
:100A5000F05F0546002092469B4688460646814642
:100A600040241BE0284641464746224600F018FA3B
:100A700053465A46C01A914110D311461846224691
:100A800000F016F82D1A67EB01084F4622460120A8
:100A9000002100F00DF817EB00094E41201EA4F1D3
:100AA0000104DFDC484631462A464346BDE8F09F54
:100AB000202A04DB203A00FA02F10020704791401E
:100AC000C2F1200320FA03F3194390407047202A13
:100AD00006DBCB17203A41FA02F043EAE07306E066
:100AE00041FA02F3D040C2F1200291400843194676
:100AF00070473A2800D2303820F02002412A01D332
:100B0000A2F13700884201D34FF0FF307047000058
:100B1000026811441378016018467047D160044997
:100B200051610449116200211161114600F0C8B9F8
:100B3000110B000871010008426842B1016811F808
:100B4000013B23B1521EC0E9001218467047012133
:100B5000C160881E704742685AB1C368016843B9D2
:100B600083688B4205D0491E521CC0E90012002048
:100B700070474FF0FF3070472DE9F05F82460078F4
:100B8000002715468B460AF10104B946302801D0EA
:100B90009DB113E014F8010B0127782803D05828E1
:100BA00001D045B10AE00DB1102D07D10027102565
:100BB00014F8010B02E0082500E00A250026B046E3
:100BC0000EE005FB080005FB06F1012701EB1046CE
:100BD0001FFA80F8B6F5803F00D3B94614F8010B30
:100BE0002946FFF786FF0028EBDABBF1000F05D09E
:100BF0000FB1641E00E05446CBF80040B9F1000F7D
:100C000006D00DF00FFF02210160C81EBDE8F09F65
:100C100048EA0640FAE70029A8BF7047401C49008F
:100C200008BF20F00100704710B4B0FA80FC00FA51
:100C30000CF050EA010404BF10BC704749B1CCF17C
:100C4000200421FA04F411FA0CF118BF0121214308
:100C50000843A3EB0C01CB1D4FEA00614FEA1020C3
:100C600042BF002010BC704700EBC3501044002965
:100C7000A4BF10BC7047401C490008BF20F0010011
:100C800010BC704710B5141E73F1000408DA401C44
:100C900041F1000192185B411A4301D120F001009B
:100CA00010BD2DE9F04D92469B4611B1B1FA81F28B
:100CB00002E0B0FA80F220329046FFF7F9FE0446D7
:100CC0000F4640EA0A0041EA0B0153465A460843E0
:100CD00013D0114653EA010019D0C8F14002504622
:100CE00000F0DEF805460E46504659464246FFF7EC
:100CF000DFFE084305D0012004E020463946BDE868
:100D0000F08D0020054346EAE0762C4337430A98ED
:100D10006305E40AA0EB08000022FD0A44EA4754F8
:100D20000A3002D500200146E9E7010510196941A2
:100D3000DDE9084500196941BDE8F04DA2E72DE95C
:100D4000F04D81EA030404F0004B21F00045144605
:100D50004FF0000A23F0004150EA050220D054EA87
:100D600001021DD0C5F30A570246C5F31303C1F3B0
:100D70001300C1F30A5640F4801543F48013A7EB27
:100D80000608101BD64608F2FD3873EB050002D3A7
:100D900008F1010801E092185B41B8F1000F03DA95
:100DA00000200146BDE8F08D00204FF4801106467A
:100DB00084460EE0171B73EB050705D3121B63EB8C
:100DC000050306434CEA010C49084FEA300092182B
:100DD0005B4150EA0107EDD152EA030012D082EAEA
:100DE000040083EA0501084305D0101BAB4106D27D
:100DF0000122002306E000224FF0004302E06FF0E2
:100E0000010253101AEB06004CEB085110EB0A00DC
:100E100041EB0B01BDE8F04DFFF734BFC1F30A52BF
:100E2000C1F3130140F2FF3341F480119A4202DA18
:100E300000200146704740F233439A42A2F2334207
:100E400002DC524200F02CB8FFF732BE30B5041E6F
:100E500071F1000404DB4FF00044404264EB0101F7
:100E6000141E73F1000405DB1C464FF00043524290
:100E700063EB0403994208BF904230BD064C074D16
:100E800006E0E06840F0010394E80700984710345A
:100E9000AC42F6D3FFF750F90C5401082C5401086A
:100EA000202A04DB203A21FA02F00021704721FABF
:100EB00002F3D040C2F12002914008431946704726
:100EC0002DE9F34F8BB04FF0000801F10C000C46F8
:100ED0004FF0010B46460DF1080A019062690121AD
:100EE00001989047051E2DD0252D2CD0216A8847CA
:100EF000C0B16269012101989047216A88470028A2
:100F0000F7D1411E62690198904700E0761CA16903
:100F10000B988847216A88470028F7D1E1690B9828
:100F20008847DBE7A1690B9888470746A84201D1AB
:100F3000761CD3E7E1690B9888477F1C02D1B8F192
:100F4000000F6FD046E1002762693D46394601989F
:100F500090472A2804D16269012101989047012510
:100F6000DFF884926269012101989047A0F1300175
:100F70000A290AD24F45E5DC07EB870100EB410760
:100F8000303FDFD445F01005ECE7E90601D46FF0FF
:100F900000476C280AD04C2814D0682815D06A283D
:100FA0000DD074281CD07A281AD01DE06269012166
:100FB000019890476C2802D045F0040514E045F0F4
:100FC00002050DE045F020050AE062690121019863
:100FD0009047682802D045F0080505E045F4006513
:100FE0006269012101989047C4E9015765283DD005
:100FF00019DC58287AD00CDC452837D004DC2528A9
:1010000026D0412831D131E046282FD047282CD195
:101010002CE05B2877D0612828D063287CD0642816
:1010200023D15AE0D0E06F2848D008DC66281DD0D4
:1010300067281BD0692821D06E2816D127E0702898
:1010400045D0732868D0752847D078280DD14DE059
:10105000A1690B988847054625283FF469AFE169E7
:101060000B9888476D1C3FF46AAFB3E023466A468D
:101070006FF001000B99AFF300809EE045F0400057
:101080006060A80723464FF0000236D43EE0E80730
:101090007FF447AF2068011D21600068290501D554
:1010A00006701BE7290701D5068017E7A90703D5B6
:1010B000F117C0E9006111E706600FE745F0400055
:1010C0006060A80723464FF0080216D41EE040F6E1
:1010D0000E0125EA0100606016E045F04000606006
:1010E000A80723464FF00A0207D40FE045F040005E
:1010F0006060A80708D5234610226FF001000B9905
:10110000AFF3008059E007E0234610226FF00100A2
:101110000B99FFF7F3F850E04FF000094F464B46AC
:10112000632802D05B2806D040E0E80601D4012005
:10113000A06001273AE062690121019890475E288A
:1011400005D14FF00109626949460198904721692C
:1011500039B900210A46534643F82120491C082981
:10116000FADBB0B3216969B9C11700EBD162531141
:101170000AEB830122F01F02821A01200B689040C3
:1011800003430B6062690121019890475D28E8D113
:10119000B9F1000F09D00020514651F82020D24368
:1011A00041F82020401C0828F7DB02AB22460097BC
:1011B0006FF001000B99FFF747F900280CDA401C8B
:1011C00008D1BBF1000F05D04FF0FF300DB0BDE8E6
:1011D000F08FFFE74046F9E7E90701D108F1010880
:1011E00006444FF0000B79E6CCCCCC0C30B58C1813
:1011F00010F8012B12F00F0301D110F8013B120976
:1012000006D110F8012B03E010F8015B01F8015B37
:101210005B1EF9D101E001F8013B521EFBD1A14256
:10122000E6D3002030BD000010B582B0C8B18C46B6
:1012300042F6A04042F60251C0F60100C0F601019C
:1012400000220023CDF800C000F0B4FA40F248308C
:10125000C2F2000090F808020238B0FA80F04409A7
:101260000DE042F6A04041F28153C0F60100C0F605
:10127000000300214FF47A72002400F09BFA20460C
:1012800002B010BD80B582B042F6025184460AA079
:10129000C0F6010100220023CDF800C000F08AFA58
:1012A00040F24830C2F2000090F808020238B0FA6A
:1012B00080F0400902B080BD41542B4448435000A7
:1012C00010B582B0C8B18C4642F6EC4042F60251ED
:1012D000C0F60100C0F6010100220023CDF800C0D5
:1012E00000F068FA40F24830C2F2000090F80802BC
:1012F0000238B0FA80F044090DE042F6EC4041F2C9
:101300008153C0F60100C0F6000300214FF47A7249
:10131000002400F04FFA204602B010BD80B582B024
:1013200042F6025184460AA0C0F6010100220023C1
:10133000CDF800C000F03EFA40F24830C2F20000A2
:1013400090F808020238B0FA80F0400902B080BD7F
:1013500041542B445343410010B582B042F6B4408F
:1013600042F617410024C0F60100C0F60101002238
:101370000023009400F01EFA40F24830C2F2000050
:1013800090F80802022807D104A00DF0CFFF41F227
:101390004260C2F20000047002B010BD5B41545DB7
:1013A0002041545F53657454706D6F64207375638E
:1013B000636573650000000010B582B0C8B18C464B
:1013C00042F6FC4042F60251C0F60100C0F60101AF
:1013D00000220023CDF800C000F0ECF940F24830C4
:1013E000C2F2000090F808020238B0FA80F0440916
:1013F0000DE042F6FC4041F28153C0F60100C0F618
:10140000000300214FF47A72002400F0D3F9204643
:1014100002B010BD80B541F2815304A0C0F60003B4
:1014200000214FF47A7200F0C5F980BD41542B4C75
:101430004950000010B582B0C8B18C4642F6D04089
:1014400042F60251C0F60100C0F60101002200235D
:10145000CDF800C000F0AEF940F24830C2F2000012
:1014600090F808020238B0FA80F044090DE042F624
:10147000D04041F28153C0F60100C0F600030021C4
:101480004FF47A72002400F095F9204602B010BDA6
:1014900010B582B0044604F035FFA8B142F6C6404C
:1014A000C0F6010010A100220023009400F082F990
:1014B00040F24830C2F2000090F808020238B0FA58
:1014C00080F0400902B010BD42F6C64041F281539F
:1014D000C0F60100C0F6000300214FF47A7200F05C
:1014E00069F9032002B010BD4755443630302D2530
:1014F000732C310080B582B0D0B18C4642F6D84012
:1015000042F60251C0F60100C0F60101002200239C
:10151000CDF800C000F04EF940F24830C2F20000B1
:1015200090F808020238B0FA80F0400902B080BD9D
:1015300042F6D84041F28153C0F60100C0F60003E4
:1015400000214FF47A7200F035F9032002B080BD1B
:1015500080B508A000210022002300F02BF940F202
:101560004830C2F2000090F808020238B0FA80F069
:10157000400980BD41542B5245424F4F540000005A
:1015800070B5022803D112B112A4022506E0042886
:101590001FD1002A08BF70BD0EA4042502EBC210A3
:1015A00001EB4000A0F581760EA031460DF0E2F986
:1015B00042F66840C0F6010029460DF0DBF92046EE
:1015C0000DF0B4FE3046FEF728FE81B230460BF037
:1015D0008DFE70BDD7BCB1B8B7A2CBCDBBD8B0FC27
:1015E0000000000044617461204672616D653A201C
:1015F00025730A0080B508A000210022002300F016
:10160000D9F840F24830C2F2000090F808020238DF
:10161000B0FA80F0400980BD41542B524553544FDD
:1016200052450000F0B5A2F1010C0023002400BFD8
:101630009AB294454FF0000531DDB0F80264B0F87D
:101640000074BE422BD0855D01338D54B0F8022466
:10165000402D02F101064FF000029DB26FF39F266C
:1016600008BF621C022DA0F802640DD36C1814F898
:10167000026C0D2E08D114F8014C0A2C04D1002460
:101680004C559E4607E000BFD5B22C1F18BF012461
:10169000042D08BF9E46002C14467546C8D1A8B23A
:1016A000F0BD0000B0F800C4B0F802240CF1010352
:1016B0006FF39F2393420FBF002000F80C10A0F897
:1016C000003401207047000010B582B0C0B142F66E
:1016D000BE4042F617410124C0F60100C0F60101E8
:1016E00000220023009400F065F840F24830C2F276
:1016F000000090F808020238B0FA80F044090DE0CA
:1017000042F6BE4041F28153C0F60100C0F600032C
:1017100000214FF47A72002400F04CF8204602B009
:1017200010BD000010B582B0C8B18C4642F6DF4053
:1017300042F60251C0F60100C0F60101002200236A
:10174000CDF800C000F036F840F24830C2F2000098
:1017500090F808020238B0FA80F044090DE042F631
:10176000DF4041F28153C0F60100C0F600030021C2
:101770004FF47A72002400F01DF8204602B010BD2C
:1017800080B582B042F6174141F281534FF0050C0B
:1017900006A0C0F60101C0F6000342F22832CDF8DF
:1017A00000C000F007F802B080BD00BF41542B53C9
:1017B00043414E00F0B581B040F24834C2F200041B
:1017C000164694F810220AB101B0F0BD1D460F462E
:1017D000034606A80090B1B13878A0B142F69C4209
:1017E000C0F6010220464FF400710DF0D3F82046F8
:1017F000FEF713FD2218009BC0F5007110463A4613
:101800000DF0F6F80BE040F2483042F60252C2F218
:101810000000C0F601024FF400710DF0BBF8204645
:10182000FEF7FBFC40F2FF110A1A22A12046FEF748
:1018300016FD00F02BFCC4F80002012084F8080219
:101840003046C4F80C52002E18BF012084F8100254
:101850002046FEF7E2FC81B2204602F0E9F91EB113
:10186000C4F8046201B0F0BD00F010FC064600BFF1
:1018700000F00CFC801B80087C280BD894F8080230
:1018800000F0FE010229F3D175B194F8262C04F280
:10189000122108E0042084F808022DB194F8262CC7
:1018A00004F212210420A847002084F8100201B09D
:1018B000F0BD00BF0D0A0000F0B581B01C46034624
:1018C00006A8009081B308780F4668B340F2483606
:1018D0001546C2F2000642F69C42C0F601023046AE
:1018E0004FF400710DF056F83046FEF796FC3218B2
:1018F000009BC0F5007110463A460DF079F830466D
:10190000FEF78BFC80B20719B91CB1F5007F0BD82C
:10191000304429462246FEF734FCB9B2304602F084
:1019200087F902A00DF002FD01B0F0BD73656E6491
:101930002055382064617461207375636365736535
:1019400021000000B0B582B042F6B44042F6174123
:101950000125C0F60100C0F6010100220023009518
:101960000024FFF727FF40F24830C2F2000090F851
:101970000802022808D106A00DF0D8FC41F242600E
:10198000C2F2000001240570204602B0B0BD00BFC5
:101990005B41545D2041545F53657454706D6F64B6
:1019A00020737563636573650000000080B541F2C4
:1019B000815304A0C0F6000300214FF47A72FFF7B0
:1019C000F9FE80BD41542B5354415400F0B581B011
:1019D00040F24837C2F2000797F8100278B197F842
:1019E0000802013802280AD800F050FBD7E980121B
:1019F000401A904205D897F80802032801D001B098
:101A0000F0BD16A00CF0B6FF97F8260C042187F85D
:101A10000812E8B116A41AA507F212260FE000BFBB
:101A200020460DF083FC97F8260C013887F8260C29
:101A3000C1B228460CF09EFF97F8260C40B1D7F8AB
:101A40000C32002BECD0C2B2042031469847EAE7B2
:101A5000002087F8100201B0F0BD00BF41545F5371
:101A6000544154455F54494D454F5554210A0D008A
:101A700063616C6C6261636B204E554C4C000000DE
:101A80006672616D655F636F756E742D2D3A2564A6
:101A90000A0000002DE9F04FC5B004465AB11546C2
:101AA00004F628464F1E00BF17F8011F3046FFF707
:101AB000F9FD013DF8D104F6284805AE404631460F
:101AC0004FF48072FFF7AEFD002800F0E7808246F9
:101AD000301D0FF23C2B0FF24829AFA50290CDF834
:101AE0000C8012E030462946FEF76FFB00284FD0ED
:101AF000022084F80802404631464FF48072FFF716
:101B000091FD8246002800F0C980584631460CF00D
:101B100031FF30464946FEF758FB98B1012002F0EC
:101B2000D3FE074630463D21FEF76DFBE0B30130A2
:101B30007EA104AA3B46FEF7C5FB022800F0B18057
:101B40007EA043E0304685A1FEF73FFB70B3012045
:101B5000A8465D4602F0B8FE834630463D21FEF7BA
:101B600052FBB0B3471C7FA039460CF003FF41F68F
:101B7000F80238467DA1C2F2000204ABCDF800B0F5
:101B8000FEF7A0FB032800F09C806CA022E000BFC1
:101B900042F6E6413046C0F60101FEF716FB00288A
:101BA000A9D00320A5E700BF68A00FE0BAF1080F95
:101BB0000AD30598B0F1253F06D10AEB060050F88C
:101BC000040CB0F1403F3DD06CA000BF0DF0AEFB67
:101BD00006E05EA00DF0AAFBAB464546DDF80C80A2
:101BE00094F8267C092F3FF67DAF3046FEF715FBB3
:101BF0000528FFF477AF42F6F3413046C0F6010105
:101C0000FEF7E3FA00287FF46DAF07EBC71004F28C
:101C1000122707EB40003146FF22FEF7E8FA94F85E
:101C2000260C00EBC01107EB41010130A1F800A127
:101C300084F8260CC1B242F68C40C0F601000CF0CC
:101C400099FE4FE742F60550C0F601000DF06EFB1D
:101C5000012002F039FEBAF1080F0190C0D3AAF1B9
:101C6000070C029B4FF0000E604606E00EF1010EDD
:101C70000138E64503F10103B2D056F80E10B1F178
:101C8000253FF3D106EB0E01002700BFDA59B2F170
:101C9000403F27D00137B842F8D1E7E745B0BDE86B
:101CA000F08F049942F68040C0F601000CF062FE0D
:101CB00004990120A7F80404A7F8001445B0BDE872
:101CC000F08F049942F68040C0F601000CF052FEFD
:101CD000049940F20110ABF80404ABF8001445B0CD
:101CE000BDE8F08F019D07F1080428462246FEF763
:101CF00048FA012085F8040442F65B40A1B2C0F620
:101D00000100A5F800440CF035FE45B0BDE8F08FA9
:101D10006672616D655F6275663A25730A00000040
:101D200047415454444154410000000025642C258F
:101D30003531325B5E0D0A5D00000000B8F1CABDAE
:101D4000BDE2CEF6CAA7B0DC00000000CEB4D5D20A
:101D5000B5BD20273D2720B7FBBAC50057464441F3
:101D60005441000025730D0A0000000025642C2555
:101D7000642C253531325B5E0D0A5D00B2BBB0FCD0
:101D8000BAAC20C0B4D4B4B9D8BCFCD7D620D7D60E
:101D9000B7FBB4AE000000004F4B000080B542F628
:101DA000B440C0F60100002100220023FFF702FD2D
:101DB00040F24830C2F2000090F808020238B0FA4F
:101DC00080F0400980BD000070B59AB004460078EC
:101DD0002B2815D10DAD28463221FEF7EBF96E46C2
:101DE00030463221FEF7E6F9601C2946324609F0FA
:101DF000F5FE2846314603F065FA01201AB070BDA1
:101E000000201AB070BD000070B541F6FC01C2F2AE
:101E100000010C68002C08BF70BD0546002605E0D7
:101E200040F00200607100BFA469E4B16079C107AD
:101E3000FAD0D4E90321294491422161F4D32179D4
:101E40002661C907ECD0216809B16069884720790B
:101E50004007E9D5E08801380104E080E4D120465C
:101E600000F016F8E0E770BD80B501600021DDF8F4
:101E700008C0C0E903210421C3800381002B08BFEF
:101E8000082141EA0C01017101F0ACFA80BD0000AB
:101E90004179002201F0FC010261417170470000AC
:101EA0000021016101894279C18042F00101417143
:101EB0007047000010B541F6FC00C2F20000046853
:101EC00001E000BFA469002C08BF10BD6079810744
:101ED000F8D5216800F0FD00607109B1606988479C
:101EE00020794007EED5E08801380104E080E9D18F
:101EF0002046FFF7CDFFE5E7417941F0010141714F
:101F000070470000FEE7000080B5DDE902EC0170DB
:101F10004270C0F8023080F806E080F807C080BD4B
:101F2000F0B581B00024C4F2020420460021022250
:101F300002F070FB002850D020460021022202F05F
:101F400061FB41F27830C2F20000017840F2F022E9
:101F5000C2F2000202EB410140F2403314396FF04B
:101F60000102C2F2000300BF9F187F880232062AD6
:101F700021F8147FF8D101784CF6CD420131CCF62E
:101F8000CC42A1FB0223DA0802EB8202A1EB420160
:101F9000017011BB41F2D450C2F2000040F2F024B3
:101FA00041F2C477851EC2F200040026C2F2000787
:101FB00020460A210BF082FFD4F80610D4F80A203C
:101FC000B819B9510421426001F08CFE083625F899
:101FD000020F202E04F11404EAD101B0F0BD00007C
:101FE000FEE7000070B540F2CC260446C2F20006BF
:101FF0000120307010A0032101F01AFE00F046F815
:10200000054600BF00F042F8401BA0420AD23078DB
:102010000328F7D141F24260C2F2000000240470AC
:1020200010A004E0002030704FF0FF3403A00DF04A
:102030007DF9204670BD00BF2B2B2B0045786974BD
:102040005F5472616E73706172656E744D6F64651A
:102050005F426C6F636B696E67204641494C454433
:102060000D000000457869745F5472616E73706191
:1020700072656E744D6F64655F426C6F636B696E01
:102080006720535543434553530D00004BF60C1046
:10209000C2F20000006870474BF60C10C2F200005C
:1020A0000168013101607047FEE7000070B545F23C
:1020B00000440E460546C4F2000400BF204640F22C
:1020C000016104F027F80028F8D1204604F064F8F4
:1020D00020464FF4A06104F01DF80028F8D02046F7
:1020E00080216FF0010204F041F800BF204640F269
:1020F000015104F00FF80028F8D0204640F20151B9
:1021000003F0F4FF204640F2075104F003F80128E1
:10211000F8D12046314603F0E1FF00BF204640F2EF
:10212000025103F0F7FF0028F8D00026A95D2046F1
:1021300003F0D4FF204640F2075103F0EBFF0028E4
:10214000F8D00136022EF1D1204604F02BF800BF62
:1021500020688005FCD470BDF0B581B045F2004424
:1021600015460F460646C4F2000400BF204640F262
:10217000016103F0CFFF0028F8D1022D04D12046E1
:102180004FF4006103F0D2FE204604F005F800BFD2
:1021900020464FF4A06103F0BDFF0028F8D0204690
:1021A00080216FF0010203F0E1FF00BF204640F202
:1021B000015103F0AFFF0028F8D0204640F2015152
:1021C00003F094FF204640F2075103F0A3FF0128DB
:1021D000F8D1204603F084FF2046394603F07EFF05
:1021E000204640F2025103F095FF0028F8D0142059
:1021F00002F0F2F8204603F0CFFF00BF20464FF474
:10220000A06103F087FF0028F8D02046802101223A
:1022100003F0ACFF022D03D82046002103F080FE1E
:10222000204640F2015103F075FF0028F8D0204607
:1022300040F2015103F05AFF012D0DD1204603F069
:10224000B1FF09E077B3012002F0C6F8204640F262
:10225000065103F05FFFF0B9AFB2022F10D0032F89
:10226000F0D100BF204640F2025103F053FF002896
:10227000F8D02046002103F053FE022FE3D100BF27
:10228000204640F2025103F045FF0028F8D02046D6
:1022900003F088FFD7E7204603F01CFF06F8010B88
:1022A000013DD9E720688005FCD420464FF48061C9
:1022B00003F036FE2046002103F038FE01B0F0BDE9
:1022C000F0B581B0064640F2016003F08BFF0028B4
:1022D00074D045F20045C4F2000528464FF6FF745D
:1022E00003F05AFF4FF4A06003F062FF00286AD0A9
:1022F000284682216FF0010203F038FF40F20150BE
:1023000003F056FF00285ED0284640F2015103F04A
:10231000EDFE40F2075003F04BFF002853D0284653
:10232000314603F0DBFE40F2025003F041FF00288B
:1023300049D0284603F030FF4FF4A06003F038FF87
:10234000002840D028468221012203F00FFF40F2EE
:10235000015003F02DFFB0B3284640F2015103F0C5
:10236000C5FE40F2065003F023FF60B3284603F099
:10237000B1FE06462846002103F0D2FD284603F0B0
:1023800011FF40F2065003F013FFE0B1284603F0BE
:10239000A1FE074628464FF4007103F0BBFE00285B
:1023A000F8D128464FF4806103F0BAFD40F2016095
:1023B00003F018FF50B147EA062404E00BA04FF6E3
:1023C000FF740CF0B3FF204601B0F0BD01A00CF08B
:1023D000ADFFF8E74552524F523A2049324320D7D9
:1023E000DCCFDFCEB4CACDB7C50000004552524F96
:1023F000523A2049324320D7DCCFDFC3A6A3ACB585
:10240000C8B4FDB3ACCAB10070B5064640F2016075
:102410000D4603F0E7FE002853D045F20044C4F215
:102420000004204603F088FD204603F0B5FE4FF47B
:10243000A06003F0BDFE002847D0204682216FF047
:10244000010203F093FE40F2015003F0B1FE0028B8
:102450003FD0204640F2015103F048FE40F20750C1
:1024600003F0A6FE60B32046314603F037FE40F28B
:10247000075003F09DFE18B3290A204603F02EFEF4
:1024800040F2075003F094FED0B1E9B2204603F0C9
:1024900025FE40F2025003F08BFE88B1204603F087
:1024A00081FE4FF4007003F09DFEB0B140F2016078
:1024B00003F098FE002818BF70BD0AA00CF036FF8C
:1024C00070BD21A00CF032FF70BD1AA00CF02EFFE1
:1024D00070BD11A00CF02AFF70BD08A00CF026FF03
:1024E00070BD00BF5B6572726F725D204932432020
:1024F000D7DCCFDFCEB4BFD5CFD000005B65727222
:102500006F725D2053544F5020D0C5BAC5CEB4C4AD
:10251000DCC7E5B3FD0000005B6572726F725D2081
:10252000C9E8B1B8B5D8D6B7B7A2CBCDCAA7B0DC89
:10253000000000005B6572726F725D2053746172FF
:102540007420CAA7B0DC00005B6572726F725D20F8
:1025500049324320D7DCCFDFC3A6A3ACCDCBB3F643
:1025600000000000F0B581B007462A201C46154641
:102570000E4600F0FDFC384600F0DCFC284600F07A
:10258000D9FC2B2000F0F4FC304600F0D3FC2046B0
:1025900000F0D0FC2C2000F0EBFC01B0F0BD0000FE
:1025A00010B5144602460B46FFF7DCFF204600F04C
:1025B000C1FC10BD2DE9F04381B00E468146501E8E
:1025C000591E9846154682B28BB248463146FFF7EF
:1025D000C9FF464512D2089C04E000BF0136B0B2E4
:1025E00040450BD2A945F9D24F4600BF204600F026
:1025F000A1FC0137B8B2A842F8D3EFE701B0BDE8BB
:10260000F0830000B0B582B041F20004C4F20104CE
:1026100020464021012202F0FBFA642001F0DCFE9A
:10262000204640210022002502F0F2FA642001F049
:10263000D3FE20464021012202F0EAFA642001F094
:10264000CBFE112000F094FC0A2001F0C5FECF2043
:1026500000F08EFC002000F077FCC12000F074FC3C
:10266000302000F071FCED2000F082FC642000F0CE
:102670006BFC032000F068FC122000F065FC812058
:1026800000F062FCE82000F073FC852000F05CFCA8
:10269000002000F059FC792000F056FCCB2000F01F
:1026A00067FC392000F050FC2C2000F04DFC00208D
:1026B00000F04AFC342000F047FC022000F044FC0B
:1026C000F72000F055FC202000F03EFCEA2000F04E
:1026D0004FFC002000F038FC002000F035FCC0204A
:1026E00000F046FC1D2000F02FFCC12000F040FC53
:1026F000122000F029FCC52000F03AFC332000F045
:1027000023FC3F2000F020FCC72000F031FC922089
:1027100000F01AFC3A2000F02BFC552000F014FCCD
:10272000362000F025FC782000F00EFCB12000F0EF
:102730001FFC002000F008FC122000F005FCB62071
:1027400000F016FC0A2000F0FFFBA22000F0FCFBCA
:10275000442000F00DFC022000F0F6FBF22000F017
:1027600007FC002000F0F0FB262000F001FC012017
:1027700000F0EAFBE02000F0FBFB0F2000F0E4FBA0
:10278000222000F0E1FB1C2000F0DEFB1B2000F00B
:10279000DBFB082000F0D8FB0F2000F0D5FB482021
:1027A00000F0D2FBB82000F0CFFB342000F0CCFBCF
:1027B000052000F0C9FB0C2000F0C6FB092000F04A
:1027C000C3FB0F2000F0C0FB072000F0BDFB002082
:1027D00000F0BAFBE12000F0CBFB002000F0B4FBDE
:1027E000232000F0B1FB242000F0AEFB072000F016
:1027F000ABFB102000F0A8FB072000F0A5FB382061
:1028000000F0A2FB472000F09FFB4B2000F09CFB58
:102810000A2000F099FB132000F096FB062000F040
:1028200093FB302000F090FB382000F08DFB0F2050
:1028300000F08AFB292000F09BFB322001F0CCFD48
:102840000020002140F23F12EF230095FFF7B2FE77
:10285000322001F0C1FD20464FF48071012202F0C8
:10286000D7F90A2001F0B8FD02B0B0BD2DE9F04F54
:1028700087B0DDF8448081464FEA58074FEA1810C8
:102880001C46924601237A0718BF03EB181000FB81
:1028900008F609EB580001EB08020138531E82B21A
:1028A0009BB248460D460691FFF75CFE002E04964B
:1028B00000F08280A8F10C01CAB2890141EA9201BC
:1028C000AAF12000CBB24FF64C01C2B2C0F6000113
:1028D00001EB0211019141F20C01129DC0F60101C0
:1028E0000020029201EB82114E4600224FF0000AB6
:1028F0000091039309E04FF0000A00BF059A049984
:102900000132039B90B2814256D9052B54D80592CF
:10291000DFE803F0030E5210521A02994FF2D83238
:1029200001EB4101C0F6000202EB81010DE000BFA6
:1029300001990AE002994FF63C6201EB4101C0F6B1
:10294000000202EB011100E00099084490F800B089
:102950004FF0000817E000BF10EA0B0F2046109957
:1029600008BF084600F0E6FA0AF1010A5FFA8AF0A9
:10297000B0FBF7F101FB17000028BCD008F10108FB
:10298000B8F1080FBAD00120002D00FA08F0E3D00A
:1029900010EA0B0F05D00699B0B289B22246FFF7B4
:1029A000FFFD0136B0B2A0EB0900B842E6D10698AF
:1029B0004E4601300690A1E707B0BDE8F08F000059
:1029C0002DE9F04F83B015461278002A47D0DDE993
:1029D0000CA40746A4F10C008B46C1B28001DDF8BF
:1029E000388040EA91009946C6B204E015F8020F1B
:1029F0002744002833D0052E31D8DFE806F00E1921
:102A000030253003B8B259462A464B46CDE900A4DA
:102A1000CDF8088000F0DAF9E8E7B8B259462A465E
:102A20004B46CDE900A4CDF8088000F01BF8DDE7A7
:102A3000B8B259462A464B46CDE900A4CDF80880E5
:102A400000F0A2F8D2E700BFB8B259462A464B467A
:102A5000CDE900A4CDF8088000F026F9C6E703B060
:102A6000BDE8F08F2DE9F04F87B0119E8046F00849
:102A70001C4606910121730718BF01EBD600704375
:102A800043F621630590701E4FF000094FF01A0CB9
:102A9000C0F6010347464FF0000B019002920DE093
:102AA000DDF80C90029A09F1010943F62163B9F1AE
:102AB000050F4FF01A0CC0F6010361D009FB0CF0B2
:102AC000185C1178CDF80C908842E9D109FB0C35DF
:102AD000517868788842E3D10199DDF818C0C819A7
:102AE000614482B28BB2B8B21FFA8CF1FFF73AFDA3
:102AF00005980028D4D000204FF0000A049509E082
:102B00004FF0000B0AF1010A0599049D5FFA8AF063
:102B10008142C5D9284400F10209002517E000BF11
:102B200099F800001099E840C007204608BF084601
:102B300000F000FA0BF1010B5FFA8BF0B0FBF6F13D
:102B400001FB16000028DBD00135082DDAD01298E1
:102B50000028E5D099F80000E840C00705D00699A4
:102B6000B8B289B22246FFF71BFD0137B8B2A0EB1D
:102B70000800B042E8D10698474601300690C1E708
:102B800007B0BDE8F08F00002DE9F04F87B0119E2F
:102B90008046F0081C4606910121730718BF01EB1F
:102BA000D600704343F6A3610590701E4FF00009F4
:102BB000C0F6010147464FF0000B019002920BE076
:102BC000DDF80C90029A09F1010943F6A361B9F10D
:102BD000440FC0F6010163D009EB091011F810C0D1
:102BE0001378CDF80C909C45EAD101EB400568784C
:102BF00051788842E4D10199DDF818C0C8196144C0
:102C000082B28BB2B8B21FFA8CF1FFF7ABFC059819
:102C10000028D5D000204FF0000A04950AE04FF0BC
:102C2000000B00BF0AF1010A0599049D5FFA8AF0C2
:102C30008142C5D9284400F10209002517E000BFF0
:102C400099F800001099E840C007204608BF0846E0
:102C500000F070F90BF1010B5FFA8BF0B0FBF6F1AD
:102C600001FB16000028DAD00135082DDAD01298C1
:102C70000028E5D099F80000E840C00705D0069983
:102C8000B8B289B22246FFF78BFC0137B8B2A0EB8D
:102C90000800B042E8D10698474601300690C1E7E7
:102CA00007B0BDE8F08F00002DE9F04F87B0119E0E
:102CB0008046F0081C4606910121730718BF01EBFE
:102CC000D600704344F2AB730590701E4FF00009BC
:102CD0004FF04A0CC0F6010347464FF0000B01903D
:102CE00002920DE0DDF80C90029A09F1010944F21C
:102CF000AB73B9F1220F4FF04A0CC0F6010361D05B
:102D000009FB0CF0185C1178CDF80C908842E9D1E1
:102D100009FB0C35517868788842E3D10199DDF8D8
:102D200018C0C819614482B28BB2B8B21FFA8CF1D4
:102D3000FFF718FC05980028D4D000204FF0000AB7
:102D4000049509E04FF0000B0AF1010A0599049D72
:102D50005FFA8AF08142C5D9284400F102090025B2
:102D600017E000BF99F800001099E840C00720461E
:102D700008BF084600F0DEF80BF1010B5FFA8BF09C
:102D8000B0FBF6F101FB16000028DBD00135082D61
:102D9000DAD012980028E5D099F80000E840C00782
:102DA00005D00699B8B289B22246FFF7F9FB013780
:102DB000B8B2A0EB0800B042E8D10698474601300F
:102DC0000690C1E707B0BDE8F08F00002DE9F04F95
:102DD00087B0119E8046F0081C46069101217307BA
:102DE00018BF01EBD600704345F27F110590701EAD
:102DF0004FF00009C0F6010147464FF0000B01906B
:102E000002920BE0DDF80C90029A09F1010945F2FB
:102E10007F11B9F1050FC0F6010163D009EB8910EC
:102E200011F810C01378CDF80C909C45EAD101EB55
:102E30004005687851788842E4D10199DDF818C0DE
:102E4000C819614482B28BB2B8B21FFA8CF1FFF795
:102E500089FB05980028D5D000204FF0000A049582
:102E60000AE04FF0000B00BF0AF1010A0599049D2A
:102E70005FFA8AF08142C5D9284400F10209002591
:102E800017E000BF99F800001099E840C0072046FD
:102E900008BF084600F04EF80BF1010B5FFA8BF00B
:102EA000B0FBF6F101FB16000028DAD00135082D41
:102EB000DAD012980028E5D099F80000E840C00761
:102EC00005D00699B8B289B22246FFF769FB0137EF
:102ED000B8B2A0EB0800B042E8D1069847460130EE
:102EE0000690C1E707B0BDE8F08F00002DE9F04F74
:102EF00083B09B461378CBB1DDE90C9ADDF83880BE
:102F00000D4606464FEA5A07541E00BFB0B2DAB269
:102F100029465B46CDE9009ACDF80880FFF7A6FC6C
:102F2000A3783E44002B04F10104EFD103B0BDE8C7
:102F3000F08F000010B50446000A00F005F8E0B27A
:102F400000F002F810BD0000B0B541F20005C4F277
:102F50000105044628468021002201F059FE204642
:102F600000F02AF928468021012201F051FEB0BD6F
:102F7000B0B540F60045C4F20105044628461021CC
:102F8000002201F045FE2046FFF7DEFF2846102113
:102F9000012201F03DFEB0BDFEE70000FEE70000AB
:102FA0004EF623510001CEF2000108707047000078
:102FB000FEE7000080B582B0002001900BA00CF06D
:102FC000B5F901A801F0ECFB30B1019A22B181B250
:102FD00010460BF06FFC02E008A00CF0A7F9019876
:102FE000002818BF0BF074FB02B080BDB1A3B4E69B
:102FF000C0FACAB7CAFDBEDD00000000C0FACAB7F9
:10300000CAFDBEDDCCEEB3E4CAA7B0DCBBF2CEDEB7
:10301000D0A7CAFDBEDDB3A4B6C8000080B54FF688
:10302000FF7291B140F2080C0138C2F2000C00BFEF
:1030300010F8013F1FFA82FED2B25A403CF812202B
:1030400001390B0482EA1E22F2D190B280BD000049
:103050002DE9F04182B0002001900120FFF730F906
:10306000FDF792FC0021C4F22001FDF7EDFA41F2D8
:10307000EC57C2F2000778600220FFF721F9FDF754
:1030800083FC0021C3F6A071FDF7DEFA386003204F
:10309000FFF716F919214843FDF76DFC386104204C
:1030A000FFF70EF9FDF770FC41F26F28054638680E
:1030B000C3F683284146BD60FDF7C6FA2946FDF7F1
:1030C000C3FA4146FDF7C0FA01ADF8602846002179
:1030D0000222FFF741F8A81C01210222FFF73CF869
:1030E000BDF80400000400BAFDF745FCFDF76AFCDA
:1030F0000025C3F6F06500222B46FDF7BCFB4AF223
:103100000003C4F264030022FDF7B5FB0023CCF2F8
:1031100044030022FDF708FBFDF767FCBDF806102D
:103120000646080400BAFDF726FCFDF74BFC00221A
:103130002B46FDF7A0FB0023C4F259030022FDF744
:103140009AFBFDF752FC054641F2E450C2F2000042
:10315000C0E9006538680021BF68C4F27A41FDF714
:10316000A5FA41F23064C2F20004C4E90006384610
:103170004146A560FDF768FAE06002B0BDE8F08165
:10318000B0B543F200040546C4F201042046022112
:103190000AF070FF0028F9D0204629460AF044FFC3
:1031A000204601210AF066FF0028F9D020460AF0E7
:1031B00037FFC0B2B0BD000070B543F6004405460D
:1031C0000026C4F2000400BF204602210AF052FF8C
:1031D00020B9C72E06F10106F6D90EE02046294691
:1031E0000AF022FF002500BF204601210AF042FF1D
:1031F00030B9002D05F10105F6D00020C0B270BD38
:1032000020460AF00DFFC0B270BD0000FEE70000CE
:1032100010B582B0002044F2FF110024FFF7F4F84B
:103220000020FFF74DF8052001F0D6F805204FF4F7
:103230002061FFF7E9F80520FFF742F80EA00CF037
:1032400075F81020ADF806000DF106000221FEF71A
:103250002DFF142001F0C0F801A8FF210222ADF8D3
:103260000440FEF779FFBDF80400000401BA09A08C
:103270000BF080FB02B010BD494E41323236205275
:10328000454720434F4E46494720535543434553F6
:1032900045210000546865204465766963654944AA
:1032A00020697320307825780A0D0000B0B5013808
:1032B0000024B4EB106F1CBF0120B0BD4EF210050E
:1032C000CEF2000568600F20FFF76AFE0720AC60B1
:1032D00028602046B0BD000080B501F087F8FEF7F9
:1032E000DBFE0120FEF790FD80BD000010B582B02E
:1032F00041F20004C4F20204206840F001002060A2
:1033000020688007FCD5606800F00C00082839D1DF
:103310000020019001994F2906D800BF0199013181
:10332000019101995029F9D361680091009921F028
:10333000F0010091009941F08001009100996160D5
:10334000019001984F2805D801980130019001980B
:103350005028F9D360680090009820F0F0000090A9
:10336000009840F09000009000986060002001906C
:1033700001984F2806D800BF0198013001900198AC
:103380005028F9D3606820F00300606000F0F6F880
:1033900020684FF6FF71CFF6F66108402060606844
:1033A0000C22CEF6FF021040606020684FF6FF72DC
:1033B000084020602068CFF2007220F48020206056
:1033C0006068104060602068084020604FF41F0073
:1033D000A0600AF001FF4FF00060002108F01EFB22
:1033E00002B010BD41F6FC01C2F200010A682AB128
:1033F000824208BF70479269002AF9D10A680860C2
:1034000082617047B0B50024C4F20204A4F54845B7
:1034100040F20431C0F2040128460BF0A1F840B399
:1034200028460BF01BF8002001F04EFA002808BFD8
:10343000B0BD05462046042101F05AF9C0F50070E0
:10344000A5F8000405F5007182B22846FCF799FE44
:10345000012085F804042046042101F00DF82046DF
:1034600004214FF4007201F033F92046042101F0E9
:1034700015F8B0BD70B50024C4F20204A4F5DE3521
:1034800040F20431C0F2040128460BF069F820B381
:1034900028460AF0E3FF012001F016FAE8B10546DC
:1034A0002046052101F024F940F2CC26C2F20006A4
:1034B00031780129C0F1000110D100060DD0C8B249
:1034C00005F50074012898BF012021460A78612A79
:1034D0002FD0013801F10101F8D170BD30780228F8
:1034E0000DD1C8B205F500740021215417A1204662
:1034F000FCF76BFE002808BF70BD03201EE040F201
:103500004830CAB205F50071C2F20000A5F80224E5
:10351000FEF7C0FA2046052100F0AEFF2046052147
:103520004FF4007201F0D4F82046052100F0B6FFF8
:1035300070BD07A0012100F07BFB02203070204607
:103540004FF40071FCF736FE70BD00BF2B6F6B00AF
:103550006100000010B594B001AC20464C21FCF78E
:1035600029FE46F20040C4F200000021224600F08D
:1035700063FD14B010BD0000FEE7000081B0002024
:1035800000900098C0087C2807D800BF0098013040
:1035900000900098B0F57A7FF8D301B07047000032
:1035A0002DE9F04F85B088B1044690F8340020B37F
:1035B0002069894611441546814234D943F27D5031
:1035C000C0F601000AF034FA0526B8E043F2B177FC
:1035D00043F2517043F2CD5243F2BB73C0F6010780
:1035E000C0F60100C0F60102C0F601034FF43371CA
:1035F00000970AF0F5F900BFFEE743F2B17743F216
:10360000517043F2CD5243F2C973C0F60107C0F6C0
:103610000100C0F60102C0F6010340F2CD2100977F
:103620000AF0DEF9FEE7A16A9B4604F1200809B121
:10363000404688475FEAC9700FD0204649460122BC
:103640000123CDF800B008F0F7F9064600286DD147
:103650000BF1010B09F10109013D2046012109F09F
:1036600075FF0646002861D1AD20022D8DF80C00B3
:103670003FD303AF781C0190012002900298C0074D
:1036800015D0019A2046494608F030F994F83500E3
:103690009BF8001000284FF0050008BF04203954A3
:1036A0009BF801103A1851700021029108E09BF834
:1036B00000008DF80D009BF801008DF80E00012030
:1036C000666A40F00202C2464046B84639460023C8
:1036D00000270097B047F8B920460BF025F818BB33
:1036E000023D09F10209012D0BF1020B4746D046BC
:1036F000C4D82046002109F029FF012D064608BF45
:10370000002E13D12046494601220123CDF800B0F6
:1037100008F092F9064609E0064643F2A350C0F6C7
:1037200001000AF085F900E00646D0461EB12046A9
:10373000002109F00BFFE16A09B140468847304695
:1037400005B0BDE8F08F0000816841F0080181609C
:1037500081680907FCD4816841F00401816000BFE1
:1037600081684907FCD4704780B5012908D0022937
:1037700018BF80BD4FF4401E6FF4401C382304E096
:103780004FF4700E6FF4700C2C23195801EA0C01E1
:1037900019500EEB02511A5801EA0E01114319504B
:1037A00080BD000010B508F089FC42F20044C4F26C
:1037B0000104204600F056F8002000F003F92046EE
:1037C0000221012200F052F920464FF480710122BB
:1037D00000F04CF92046002100F03AF82046012183
:1037E0000422FFF7C1FF204600210A22052300F032
:1037F000F5F8204601210B22052300F0EFF82046C2
:1038000002210C22052300F0E9F8204603210D22B5
:10381000052300F0E3F8204601214FF4602200F078
:10382000B3F820460121012200F08EF8204600F076
:1038300081F8012000F0D0FD2046FFF785FF2046EB
:1038400000F072F82046012100F002F910BD0000DE
:103850008268002922F4006218BF02F500628260CB
:103860007047000010B542F20041C4F201018842E5
:103870000FD043F60041C4F2010188420CD042F659
:103880000001C4F20101884218BF10BD40F20A34A1
:1038900004E040F2093401E040F20F34204608F021
:1038A000C9FC204608F0B6FC10BD0000B0B588B0D9
:1038B0000B2000210022002508F074F80024C4F237
:1038C00002042046002100F07FFE42F24C40C4F288
:1038D0000100019040F24030C2F20000039001204C
:1038E000ADF81D004FF4807002904FF4806004909A
:1038F000042005904FF40050069001AA20460021B4
:103900008DF81C5000F08EFE2046002100F0EAFDEC
:1039100020460021022200F0BBFE2046002100F0DC
:10392000BDFD08B0B0BD0000816841F480718160C8
:10393000704700008168C90718BF7047816841F06F
:103940000101816070470000002A01F0010203D0EC
:103950007AB9890713D470471AB1826822F48012A9
:103960008260890758BF7047816821F400418160F7
:103970007047826842F4801282608907EBD58168C3
:1039800041F4004181607047012905D0022918BF28
:1039900070476FF4E04101E06FF4602183681940E3
:1039A00081608168114381607047000080B541F2F9
:1039B0000000C4F20100002103220F2301F02EF9C0
:1039C00080BD000042F20441C4F201010A6822F401
:1039D00070220A600A6810430860704710B5052914
:1039E00004D800F1340C01EB810E10E00B2906D84D
:1039F00001EB810100F1300CA1F11E0E07E00F294F
:103A000010D801EB810100F12C0CA1F13C0EDCF887
:103A100000101F2404FA0EF4A14302FA0EF421430D
:103A2000CCF80010092A03D8103002EB420106E05E
:103A3000112A88BF10BD02EB42010C301E3902680A
:103A400007248C40A24303FA01F11143016010BD29
:103A5000CA0703D0826842F480028260890758BF97
:103A60007047816841F4001181607047002A01F4B9
:103A7000807205D0BAB94A051BD489071FD4704794
:103A80001AB1426822F4807242604A0503D5426846
:103A900022F480624260890758BF7047816821F034
:103AA000020181607047426842F4807242604A05B8
:103AB000E3D5426842F4806242608907DFD58168BD
:103AC00041F0020181607047A0F10B011F2908D865
:103AD00046F60041C4F2000141EA8000143000883B
:103AE0007047411E092984BF0020704746F60041F7
:103AF000C4F2000141EA800000887047A0F10B0287
:103B00001F2A08D846F60042C4F2000242EA8000AA
:103B1000143001807047421E092A88BF704746F65C
:103B20000042C4F2000242EA8000018070470000B7
:103B300080B508F05FFA08F053FA80BDF0B583B0A5
:103B400041F24066C2F20006707858B308F08AFF6E
:103B5000002829DD85B22FA029460AF00BFF284650
:103B600008F09EF9294600220446002708F0DAFEF4
:103B7000B0F1FF3F34DD05F1180008F091F9064679
:103B800000200021082233460094019500F0BEFD7C
:103B90000146304609F0AAFB20460AF099FD30465E
:103BA0000AF096FD03B0F0BD00251820757008F0EE
:103BB00077F904460020002108222346009501954C
:103BC00000F0A4FD0146204609F090FB20460AF0D3
:103BD0007FFD00200021012208F0A4FE03B0F0BD0B
:103BE000204677700AF074FD182008F059F9044651
:103BF00000200021082223460097019700F086FD4F
:103C00000146204609F072FB20460AF061FD03B030
:103C1000F0BD00BFB6C1C8A1B5BDB5C4C0FACAB732
:103C2000CAFDBEDDB5C4D7D6BDDA3A25640A0000A8
:103C30002DE9F04180460D4616A041460AF09AFE55
:103C40005DB1A8F1010715A62C4600BF17F8011FAA
:103C500030460AF08FFE013CF8D10A200BF060FBE1
:103C6000002D08BFBDE8F08144F20046C4F2000612
:103C7000002700BF304607210AF04AFC0028F9D08F
:103C800018F8071030460AF0EDFB0137AF42F1D1CA
:103C9000BDE8F08162743A25730A0000253032587D
:103CA000200000002DE9F04381B0904689460129AB
:103CB0000EDB441E09A647464D4600BF14F8012FEF
:103CC000384631460AF080FE013D07F10207F5D182
:103CD000002008F8190001B0BDE8F08325303278E3
:103CE0000000000041B1821E00200B4632F802CFD6
:103CF000013B6044FAD100E00020B0FBF1F080B25B
:103D0000704700002DE9F04194B001AC0F468046A9
:103D100020464C211D461646FCF74CFA082E28BFBB
:103D2000082604F10B00394632468DF80E60FCF788
:103D300028FA2DB104208DF80C00CDF8088004E09D
:103D400000208DF80C00CDF8048046F20044C4F247
:103D5000000400208DF80D0001A9204600F0C0F9F4
:103D600006464FF6FF7500BF2046314600F040FA88
:103D7000012802D0013DF7D10025002D18BF0125F3
:103D8000284614B0BDE8F08170B588B0054646F20B
:103D9000004405A90020C4F20004002600F0FCF94C
:103DA0006946002000F0F8F9204600F043F84FF093
:103DB00001707C2DCDE90506ADF81C6008DDB5F578
:103DC000FA7F0DDA7D2D13D0FA2D18D1182019E0C5
:103DD000142D0FD0322D14D0642D10D13C2011E0C1
:103DE000B5F57A7F09D0B5F5FA7F08D10C2009E046
:103DF000302007E04FF4967004E0062002E00C202B
:103E000000E07820ADF81E0005A9204600F0A0F8DB
:103E10004FF4803003904FF44050CDE90000002073
:103E2000029001208DF81000684600F017F808B0E5
:103E300070BD000046F20041C4F20001884218BF84
:103E4000704780B540F2194008F0F4F940F219408B
:103E500008F0E0F9BDE8804070470000B0B546F2D8
:103E60000061C4F2000144890A684FF0010C42F07D
:103E700001020A60CB690CFA04F5AB43CB61C3893C
:103E80006FEA050C012B10D023BBCB6803EA0C03AF
:103E9000CB60B0F806E0438843EA0E434FEAC40E15
:103EA00001EBC404236403460DE0CB682B43CB60D5
:103EB000B0F800E0438843EA0E434FEAC40E01EB3A
:103EC000C4042364831D84881B8843EA044301EBF4
:103ED0000E04636483894C68002B44EA050208BF22
:103EE00004EA0C024A6002894B69002A43EA05048D
:103EF00008BF03EA0C044C61007C012802D1C869A8
:103F00002843C861086820F001000860B0BD0000C7
:103F100010B540F2197008F06DF940F2026008F037
:103F200069F94FF4C06008F065F940F60004C4F286
:103F300001042046482103224FF4006300F06EFE86
:103F40002046182103224FF4805300F067FE10BD75
:103F500010B5026840F2010C22F002020260026811
:103F6000CFF6FF7C42F0010263460260426823B153
:103F700012F0010203F10103F8D04268D20704BF36
:103F8000002010BD0A784B7891F802E0CC789207B7
:103F900063F319620EF00F0342EA034204F00703D1
:103FA0004C8942EA0352631E6FF39F231A44C26195
:103FB0000A790368012A23F0800308BF8033036075
:103FC0004A790368012A23F0400308BF40330360A5
:103FD0008A790368012A23F0200308BF2033036095
:103FE000CA790368012A23F0100318BF1033036055
:103FF0000A7A0368012A23F0080318BF0833036014
:10400000497A0268012922F0040208BF04320260E2
:10401000016821F00101016042686146BCF1000FB6
:1040200004D012F0010201F1010CF5D1002918BFF2
:104030000121084610BD000010B500EB0114D4F8B2
:10404000B0C11CF004031372D4F8B0E119BF4FEAF9
:10405000DE0353604FEA5E531360D4F8B0314FEA89
:10406000011C03F0020353720CEB0003D3F8B441BC
:1040700000294FEA142482F84B40D3F8B44104F0ED
:104080000F049472D3F8B841D472D3F8B8414FEA10
:1040900014241473D3F8B8414FEA14445473D3F87A
:1040A000B8414FEA14649473D3F8BC41D473D3F885
:1040B000BC414FEA14241474D3F8BC414FEA1444B1
:1040C0005474D3F8BC314FEA136393744FF0100269
:1040D00008BF0C22815841F02001815010BD000022
:1040E00070B50546806840010ED4A86800014FF005
:1040F00001000CD4AA6812F0805280EA12734FF0CB
:10410000020008BF032003E00023002000E000239A
:10411000002B1CBF032070BD05EB0013D3F88021DA
:104120004FEA001C02F00102C3F880210A7A1AB19A
:104130004C6842EAC40E02E00A684FEA425E4A7ADC
:104140008C7AD3F8806142EA0E023243C3F88021B0
:104150000CEB0502D2F8846126F00F06C2F88461E8
:10416000D2F884612643C2F88461D1F80B60C2F8AA
:104170008861D1F80F10C2F88C11D3F8801141F08A
:104180000101C3F8801170BD80B514200021002208
:1041900007F008FC80BD000003280DD8DFE800F020
:1041A000020D161C0020C0F2FF308860002048601D
:1041B0004FF4003008607047FEE700204FF4803273
:1041C0000874CA6008604860886070470020C1F8C1
:1041D0000F00C1F80B0006E00020C1F80F00C1F885
:1041E0000B0081F84B00C1E90000C1F807007047DF
:1041F000022906D849B213A252F82110806808405B
:1042000000E0002040F2FF21C0F60001884209DCF6
:10421000002804BF022070470321C0F200418842F9
:104220000BD00CE040F20031C0F60001884204D00F
:104230000021C1F20301884201D101207047002012
:10424000704700BF030000040003000800000310D3
:104250002DE9F04F81B044F20757CCF22E27A0FB96
:104260000776340C40F2A3276743A0EBC7104BF24C
:10427000C537C9F2A217A0FB0776F70A4FF46166AB
:1042800007FB160048F68906C8F68806A0FB0665F7
:1042900000931646DDE90A23894617706A091A70E9
:1042A00012010C99A2EB5512A0EB820040F2B275FC
:1042B000087000BFA8B2274601F0FCFF00284FF4A9
:1042C000B77008BF40F26D1084424FF0000124BF68
:1042D0000121241A87420D44ECD242F6F83A01201B
:1042E0001FFA85FBC0F6010A307009E0BC42204687
:1042F00022BFE01B08F101013170BC4204460FD31C
:1043000096F8008008EB0A0010F8017CB8F1020F63
:10431000ECD1584601F0CEFF002818BF0137E5E781
:1043200005F1300189F8001000990130087001B0E2
:10433000BDE8F08F2DE9F04F81B0064640F2B37032
:104340009846914686420F4611DB40F2B274002532
:10435000204601F0AFFF00284FF4B77004F10104CC
:1043600008BF40F26D10A6420544F1D100E00025DF
:10437000DDF828B0022F16DB42F6F83A013F0024A0
:10438000C0F6010A03E000BF0134A7420BD01AF8BF
:104390000400012C0544F7D1304601F08BFF0028C2
:1043A00018BF0135F0E709EB050040F2A3214843AF
:1043B0004FF4616108FB01F1CBEB0B1201EB8201C1
:1043C0000B9A114401EBC010A0F58030A0F5A3407A
:1043D00001B0BDE8F08F000041F2D441C2F200010B
:1043E000086000BF08680028FCD1704741F2D44043
:1043F000C2F200000168002908BF70470168013956
:104400000160704710B541F2D03EC2F2000E9EF836
:1044100000C0BCF1000F844615D041F2D4309EF8A4
:1044200000E0C2F200000430BEF1010F98BF4FF06F
:10443000010E00BF10F8044C644509D0BEF1010E16
:1044400000F10800F6D105A061460AF093FA10BD0C
:104450000468084611461A46A04710BD556E6B6E9B
:104460006F776E20636F6D6D616E643A20307825D2
:104470003032580A00000000B0B50D46044600F086
:1044800019F948B105EB850004EB8000816821F043
:1044900001018160B0BD00BFFEE70000B0B50D4670
:1044A000044600F007F948B105EB850004EB8000F5
:1044B000816841F001018160B0BD00BFFEE70000EE
:1044C000B0B50D46044600F0F5F848B105EB85009F
:1044D00004EB8000816821F020018160B0BD00BF45
:1044E000FEE70000B0B50D46044600F0E3F848B121
:1044F00005EB850004EB8000816841F020018160BC
:10450000B0BD00BFFEE700002DE9F04788B04FF4D2
:10451000A06007F06FFE0024C4F2020420460421CC
:1045200000F052F841F60010C2F2000044F20449D3
:10453000002600F50070C4F20009CDE9030609F574
:10454000744001AD4FF4007801904FF4807A4FF43D
:104550004057204604212A468DF81E60CDF814806D
:10456000ADF81CA00296069700F05CF820460421E6
:10457000FFF7A6FF20460421FFF790FF2046052104
:1045800000F022F841F60650C2F2000000F500707B
:1045900003A981E84101204605212A468DF81E60C5
:1045A000CDF80490ADF81CA00296069700F03AF8FA
:1045B00020460521FFF784FF20460521FFF76EFF07
:1045C00008B0BDE8F0870000B0B50D46044600F025
:1045D00071F8A8B105EB850004EB8000816821F03B
:1045E0000101816000218160C16001614161A80019
:1045F0000F21626801FA00F010436060B0BD00BF97
:10460000FEE700008900436802FA01F119434160A6
:10461000704700000068890002FA01F1084018BFE5
:104620000120704770B514460E46054600F042F86A
:1046300060B3216806EB860005EB80000161A1688C
:104640004161218AC1608168626821F47C51E3681C
:1046500066691143194331438160217E82680129D3
:1046600022F0400208BF40328260617E82680129E8
:1046700022F0800208BF80328260A17E8268002919
:1046800022F0100218BF1032826070BDFEE70000F9
:1046900070B514460E46054600F00CF840B106EB26
:1046A000860005EB800081682143816070BD00BFFA
:1046B000FEE7000040F20042C4F20202801A18BF76
:1046C00001200022052938BF012210437047000055
:1046D00070B516460D460446FFF7ECFF30B105EB0A
:1046E0008501B0B204EB8101C86070BDFEE7000037
:1046F000B0B50D460446FFF7DDFF28B105EB850098
:1047000004EB8000C068B0BDFEE700002DE9F04773
:10471000DDE90889074618201D4692460C4607F039
:10472000BFFB06464FF0253040F2982130604FF035
:104730004030C2F2000170616820098870727720F1
:10474000C6F80A10F0732846314612223771C6F8AF
:10475000054086F80EA0A6F81090FBF712FDB8F100
:10476000000F05D005F1120041464A46FBF709FD4E
:1047700009F10E01281D89B2FEF750FC7082F08A03
:1047800005EB0901C882D6F81200C1F812003046C4
:1047900009F09EFF09F1180080B2BDE8F087000023
:1047A00070B5002847D004461A2007F079FB00288E
:1047B000206042D041F2DC51C2F200018A8882803E
:1047C0000968016041F23061C2F2000120680A68A4
:1047D0004B688968C0F80A30C0F80E1041F20061D9
:1047E000C0F80620C2F200012068D1E90021C0F81B
:1047F0001220C0F8161013A01A210AF0BBF817A057
:104800000AF094FD42F604450026C0F6010501E0D9
:104810001A2E0BD02068815D28460AF0ABF80136CD
:104820003007F5D10A200AF07BFDF1E70A200AF0F3
:1048300077FD1A2070BD13A000E00EA00AF076FDEF
:10484000002070BDCCEEB3E4CAFDBEDDB3A4B6C893
:104850003A20257520D7D6BDDA0A0000CCEEB3E4A5
:10486000CAFDBEDDC4DAC8DDA3A83136BDF8D6C6A0
:10487000A3A93A00C4DAB4E6B7D6C5E4CAA7B0DC47
:1048800000000000B4EDCEF3A3BA707064617461EF
:1048900020CEAABFD5D6B8D5EB000000B0B544F6FF
:1048A0000045C4F200050446C1B2284609F0DAFD0D
:1048B0002846072109F02CFE0028F9D02046B0BD7B
:1048C0000020C0F20520704741F6065241F6001163
:1048D000C2F200020128C2F2000118BF0022002823
:1048E00018BF11460846704784B08DE80F0068462F
:1048F00041F2D45C04386FF00101C2F2000C00BF39
:104900000CEB01035B8850F8042F02310629138059
:10491000F6D104B07047000010B584A10446FBF73F
:1049200083FC002800F0C68082A12046FBF77CFCB7
:10493000002800F0C18081A12046FBF775FC00280B
:1049400000F0BC807FA12046FBF76EFC002800F041
:10495000B7807EA12046FBF767FC002800F0B280FC
:104960007CA12046FBF760FC002800F0AD807BA115
:104970002046FBF759FC002800F0A88079A12046CA
:10498000FBF752FC002800F0A38078A12046FBF73B
:104990004BFC002800F09E8076A12046FBF744FCEB
:1049A000002800F0998076A12046FBF73DFC002806
:1049B00000F0948074A12046FBF736FC002800F03C
:1049C0008F8073A12046FBF72FFC002800F08A801F
:1049D00070A12046FBF728FC002800F085806FA11D
:1049E0002046FBF721FC002800F080806CA12046C7
:1049F000FBF71AFC00287BD06BA12046FBF714FCC8
:104A0000002877D069A12046FBF70EFC002873D060
:104A100068A12046FBF708FC00286FD066A120465D
:104A2000FBF702FC00286BD064A12046FBF7FCFBDF
:104A3000002867D063A12046FBF7F6FB002863D06F
:104A400062A12046FBF7F0FB00285FD060A1204662
:104A5000FBF7EAFB00285BD05FA12046FBF7E4FBF5
:104A6000002857D05EA12046FBF7DEFB002853D07C
:104A70005DA12046FBF7D8FB00284FD05CA1204663
:104A8000FBF7D2FB00284BD05BA12046FBF7CCFB09
:104A9000002847D05AA12046FBF7C6FB002843D088
:104AA00059A12046FBF7C0FB0021002808BF1F21A9
:104AB000084610BD022010BD012010BD032010BD0E
:104AC000042010BD052010BD062010BD072010BD1C
:104AD000082010BD092010BD0A2010BD0B2010BDFC
:104AE0000C2010BD0D2010BD0E2010BD0F2010BDDC
:104AF000102010BD112010BD122010BD132010BDBC
:104B0000142010BD152010BD162010BD172010BD9B
:104B1000182010BD192010BD1A2010BD1B2010BD7B
:104B20001C2010BD1D2010BD1E2010BD54504D4F27
:104B3000444500005754504D4F4445005343414EA7
:104B4000000000005245424F4F540000524553545C
:104B50004F52450053544154000000004453434118
:104B6000000000004E414D45000000004C454E4104
:104B70004D4500004741545453454E440000000049
:104B80004D4F444500000000524F4C4500000000CE
:104B90005241500057524150000000004C49500013
:104BA00044484350000000005349500057534950B7
:104BB0000000000047570000574757004D41534B36
:104BC00000000000574D41534B000000444E53007D
:104BD00057444E5300000000415041430000000084
:104BE0005741504143000000525353490000000018
:104BF000534F434B00000000574C414E4300000010
:104C0000574653454E440000434C4F534500000067
:104C10001023002A08BF1423195070472DE9F047CC
:104C2000CF0601F00F0C00F1100E00F1140A4FF046
:104C300000044FF001094FF00F084FF0000748BF84
:104C40004CEA020C0EE000BF166008FA04F225EAF6
:104C500002020CFA04F52A4302600137082F04F11E
:104C600004040CD009FA07F212EA0306F5D005682D
:104C700028295246E8D04829E7D17246E4E70824BB
:104C800000254FF001094FF00F080FE0176008FAF8
:104C900005F226EA02020CFA05F6324342600134BC
:104CA000102C05F1040508BFBDE8F08709FA04F2ED
:104CB00012EA0307F3D0466828295246E6D048296D
:104CC000E5D17246E2E70000B0B50422C4F2010269
:104CD000134602F1180E002848BF73461C6800F402
:104CE0004013B3F5401F1FFA80FC06D1156824F06D
:104CF000706325F07064146015E0C3020AD46FF08D
:104D00000F0303EA50430CFA03F324EA030343F0CE
:104D1000706308E0C0F30343032505FA03F324EAB4
:104D2000030343F070636FF00F0404EA504400295A
:104D30000CFA04F518BF2B43002848BF72461360D5
:104D4000B0BD000070B584B00024102533A205204A
:104D5000BC214FF4FC63CDE900450294FDF730FE21
:104D6000182631A223200F214FF4FC63CDE9004621
:104D70000294FDF725FE32A2322037214FF4FC6366
:104D8000CDE900460294FDF71BFE30A232205521EA
:104D90004FF4FC63CDE900460294FDF711FE2EA20C
:104DA000322073214FF4FC63CDE900460294FDF7F5
:104DB00007FE2CA2322091214FF4FC63CDE900467E
:104DC0000294FDF7FDFD2AA26E20BC214FF4FC6386
:104DD000CDE900450294FDF7F3FD27A26E20D02116
:104DE0004FF4FC63CDE900450294FDF7E9FD24A2F0
:104DF000D220BC214FF4FC63CDE900450294FDF7BD
:104E0000DFFD21A2D220D0214FF4FC63CDE9004583
:104E10000294FDF7D5FD04B070BD00BFBBAABAE790
:104E2000BFC6BCBC00000000CBC4CDA8B5C0C0EB61
:104E3000B2E3CEBBD2C6B4ABB8D0C6F70000000018
:104E4000CDA8B5C0D2BBA3BA00000000CDA8B5C0A4
:104E5000B6FEA3BA00000000CDA8B5C0C8FDA3BA35
:104E600000000000CDA8B5C0CBC4A3BA000000006C
:104E7000B5E7D1B9A3BA0000CEC2B6C8A3BA000044
:104E8000CAAAB6C8A3BA0000B1E0BAC5A3BA000066
:104E90002DE9F04F8BB00DF12A000AA90DF1260281
:104EA00009AB0590069107920893FFF71DFDFEF7E9
:104EB000CFF841F20860C2F2000041F2006B851D9C
:104EC0004FF0000AC2F2000B0FF2EC09002635E0A9
:104ED00005A850F82680B8F80000C01B01B20029D0
:104EE000D8BF504600B2FBF746FD55F8041C0246F9
:104EF00008461146FBF7A8FB2968024608461146FA
:104F0000FBF74AFB0021C4F296310446FBF725FD6E
:104F100000281CBF0024C4F296342046FBF739FD5C
:104F20002BF81600B8F80020484631463B4609F0F9
:104F300021FD0136042E05F10A0506D035F8067C60
:104F4000002FC5D12BF816A0F3E740F2982BC2F240
:104F5000000B9BF8100010B10BB0BDE8F08F4FF0C4
:104F600000094FF0070A03AC03250FF2740800276D
:104F700004E000BF032E07F10107EDD2FEB2304678
:104F8000FBF702FD0346204607213246CDF800A07C
:104F9000CDF80490FCF7B8FFDBF80A00214665F372
:104FA0001F2008220023FEF7ADFE0128E2D0404674
:104FB0000AF0BCF9DEE700BF47657453616D706CA1
:104FC0006525646368616E6E656C3A0976616C751F
:104FD000653D25642C6F66667365743D25640A0023
:104FE00063616E206D657373616765206E6F7420F9
:104FF00073656E64210D00002DE9F04F93B041F20E
:1050000000680026C2F200080FF284190DF12E0488
:105010004FF0370A4FF0180B4FF4FC67002511E0F2
:105020002654C5EB05100AEB400081B296202246BB
:105030004FF47843CDE9007B0296FDF757FF013529
:10504000042D10D038F815202046494609F0BCFC44
:105050000928E5DC2218C0F10A0110462022FBF7DE
:10506000A2F80A20DCE741F23060C2F200000168D9
:10507000426880680992CDE9071040F29820C2F298
:10508000000000880690FBF77FFC0A90002607AF1F
:105090004FF4FC694FF00008002008E00498059FD9
:1050A0000130A8F10208022807F1080746D0049051
:1050B00000EB8000BC2101EB800B4FF0000A6FF089
:1050C0000205059719E000BF265464200AFB00F092
:1050D0009E301021019180B21FFA8BF122464FF4CD
:1050E0007843CDF800900296FDF700FF05F1040A21
:1050F0000135681C07F10407D0D0A8450AD142F653
:105100001741069A2046C0F6010109F05DFC05280A
:10511000DADC0AE03868FBF755FC02460B4620460D
:105120001DA109F051FC0528CEDC2218C0F10601B2
:1051300010462022FBF737F80620C5E741F2DC5085
:10514000C2F20000C278037947790DF12E0414A150
:105150002046009709F038FC082806DC2218C0F128
:10516000090110462022FBF71EF810204FF4FC61C5
:105170000027CDE900100DF12E020520D0214FF4BB
:1051800078430297FDF7B2FE13B0BDE8F08F00BF81
:1051900025646D6D00000000252E316600000000C2
:1051A000253032643A253032643A253032640000CA
:1051B0002DE9F04F8BB0824635A003920C4609F0E2
:1051C000D9FB64B142F60446AAF10105C0F6010616
:1051D00015F8011F304609F0CDFB013CF8D10A203B
:1051E0000AF09EF8182006F05BFE9AF810700DF198
:1051F000280B81460AF1120158463A46FAF7C1FFD8
:105200000DF1260009A90DF1220208AB04900591C9
:1052100006920793FFF768FB781E03281BD841F21C
:105220000864002004ADC2F2000420A64FF000087C
:105230001BF8001055F8210001EB8103028824F8C7
:1052400013200288304609F095FB08F101085FFA47
:1052500088F0B842ECD309F0BFFA9AF80900DAF8FE
:105260000A10002703224B4600970197FFF74EFADA
:10527000039900290146484602D008F037F801E0BA
:1052800007F0FAFE484609F023FA0BB0BDE8F08FAC
:105290005B434D4420307830335D20D0A3D7BCCD64
:1052A000A8B5C0B2CECAFD3A20000000D0A3D7BC3A
:1052B0002564CDA8B5C03A206F66667365743D2538
:1052C000640A0000B0B5054601200C46FFF7FCFA61
:1052D0002846FFF721FB01381E2829D8DFE810F007
:1052E0001F002E0041004A0055005C0065006F0061
:1052F0007E0085008C0093009A00AA00B500BE00D5
:10530000CA00D7001901C801E200EF0026013301ED
:10531000FA0007013E011201450149014D0142F623
:10532000B350C0F601000AF001F8FCF737FDB0BD3C
:105330000FF2E830294609F01DFBB0BD42F6B3502C
:10534000C0F6010009F0F2FFFCF7FCFA002800F0BB
:10535000188142F64E40C0F60100042107F0C6FF56
:10536000B0BD42F6D060C0F6010009F0DFFFFCF7E7
:1053700007FAB0BDFCF7ECF8002800F00A8142F60D
:105380004E40C0F60100042108E142F64760C0F635
:10539000010009F0CBFFB0BDFCF708FB42F69170AD
:1053A000C0F6010009F0C2FFB0BD2046FBF7B6FF12
:1053B00042F62650C0F6010009F0B8FFB0BD204605
:1053C000FCF766F8002800F02A81032800F02E81FF
:1053D00042F64E40C0F60100042125E142F61D6070
:1053E000C0F6010009F0A2FFB0BD42F67050C0F651
:1053F000010009F09BFFB0BD42F69350C0F60100DA
:1054000009F094FFB0BD42F6D150C0F6010009F09A
:105410008DFFB0BD01202146FCF76CF8002800F09C
:105420000C81032800F0108142F64E40C0F60100C6
:10543000042107E100202146FCF75CF842F6EC600D
:10544000C0F6010009F072FFB0BDFBF7E3FF42F6C2
:105450003170C0F6010009F069FFB0BD2046FBF7CE
:1054600011FF002800F0A38042F64E40C0F6010074
:105470000421A1E001202146FCF754F9002800F0A6
:10548000A48042F64E40C0F601000421A2E00020B4
:105490002146FCF747F942F65670C0F6010009F0C4
:1054A00045FFB0BD01202146FBF7C4FF002800F0F6
:1054B0009A8042F64E40C0F60100042198E0002098
:1054C0002146FBF7B7FF42F6B060C0F6010009F0D5
:1054D0002DFFB0BD01202146FBF7A6FE002800F0FD
:1054E000908042F64E40C0F6010004218EE000207C
:1054F0002146FBF799FE42F64C50C0F6010009F038
:1055000015FFB0BD42F68A60C0F6010009F00EFF3B
:10551000B0BD01202146FBF74FFF002800F09B8023
:1055200042F64E40C0F60100042199E001202146D8
:10553000FBF7C6FE002800F0A68042F64E40C0F6FB
:1055400001000421A4E000202146FBF7B9FE42F649
:105550007370C0F6010009F0E9FEB0BD42F66A6062
:10556000C0F6010009F0E2FEB0BD62A009F0DEFE67
:10557000B0BD56A009F0DAFEB0BD4AA009F0D6FED3
:10558000B0BD42F65340C0F60100072107F0AEFE61
:10559000B0BD42F65340C0F60100072107F0A6FE59
:1055A00042F6B570C0F6010009F0C0FEB0BD42F68B
:1055B0005340C0F60100072107F098FE42F6117033
:1055C000C0F6010009F0B2FEB0BD42F65340C0F68D
:1055D0000100072107F08AFE42F65670C0F601006E
:1055E00009F0A4FEB0BD42F65340C0F60100072109
:1055F00007F07CFE42F6B060C0F6010009F096FEAE
:10560000B0BD42F65340C0F60100072107F06EFE20
:1056100042F64C50C0F6010009F088FEB0BD42F6DB
:105620005340C0F60100072107F060FE42F6FA5031
:10563000C0F6010009F07AFEB0BD42F65340C0F654
:105640000100072107F052FE42F6EC60C0F60100AF
:1056500009F06CFEB0BD42F65340C0F601000721D0
:1056600007F044FE42F6D370C0F6010009F05EFE7A
:1056700000202146FBF7A0FE42F6D370C0F60100E1
:1056800009F054FEB0BD42F65340C0F601000721B8
:1056900007F02CFE42F67370C0F6010009F046FEDA
:1056A000B0BD00BFB4A6C0EDB6CFBFAA544350BF33
:1056B000CDBBA7B6CBC1ACBDD3C3FCC1EEA3A84143
:1056C000542B434C4F5345A3A9000000B4A6C0ED92
:1056D000CDA8B9FD534F434B4554B7A2CBCDCAFD1E
:1056E000BEDDC3FCC1EEA3A841542B574653454E23
:1056F00044A3A900B4A6C0EDC6F4B6AF534F434BC4
:1057000045542F4D515454C1ACBDD3C3FCC1EEA37D
:10571000A841542B574C414E43A3A900CEDED0A73D
:10572000BBF2CEB4D6AAC3FCC1EEA3BA25730A005D
:105730002DE9F04182B0064625A090460D4609F0BD
:1057400019F965B142F60447741EC0F6010700BF9F
:1057500014F8011F384609F00DF9013DF8D10A206F
:1057600009F0DEFD182006F09BFB05464FF47A7029
:10577000FCF738FCFBF7F0FD707AD6F80A1000272A
:1057800009222B4600970197FEF7C0FFB8F1000FE2
:1057900013D0322006F084FB044628461821224606
:1057A000FEF780FA40F60D2020862046322107F0D1
:1057B0009DFD204608F08CFF03E00146284607F0D7
:1057C0005BFC284608F084FF02B0BDE8F08100BF12
:1057D0005B434D4420307830395D00002DE9F043C3
:1057E000A3B081461DA0904609F0C4F81A2006F027
:1057F00057FB41F2086104460020C2F2000103AAEF
:10580000002300BF0F18DDB2D7F80260D7F806708A
:105810000433DBB20A3042F8256042F823702828AE
:1058200003F10403EED199F80900D9F80A102026F3
:1058300000920A2223460196FEF768FFB8F1000F96
:105840000146204602D007F051FD01E007F014FCAC
:10585000204608F03DFF23B0BDE8F0835B434D4494
:1058600020307830415D20BBF1C8A14B414B423A1A
:1058700020000000B0B582B0044613A0154609F020
:1058800055FD2F2006F00CFB627AD4F80A1004466E
:1058900040F29820C2F200004FF0170C0090104622
:1058A00002222346CDF804C0FEF730FF0146204611
:1058B00015B107F01BFD01E007F0DEFB204608F004
:1058C00007FF02B0B0BD00BF5B434D4420307830CD
:1058D000325D20B2E9D1AFC9E8B1B8D0C5CFA200DE
:1058E00010B507A0144609F021FD41F24060C2F254
:1058F00000000121002C18BF0130017010BD00BF55
:105900005B434D4420307830385D20B6C1C8A1C01B
:10591000FACAB7CAFDBEDD0070B584B0054614A052
:10592000144609F003FD03A8FEF73AFF86B2EEB174
:1059300006F1180006F0B4FA6A7A039BD5F80A104B
:1059400005460093104607222B460196FEF7DEFE21
:105950000146284614B107F0C9FC01E007F08CFBB2
:10596000039808F0B5FE284608F0B2FE04B070BDFA
:105970005B434D4420307830375D20B6C1C8A1CAA2
:10598000B5CAB1CAFDBEDD002DE9F04383B00646BD
:105990001820904606F084FA377C02AD814606F165
:1059A000120128463A46FAF7ECFB1AA0394608F0ED
:1059B000E1FF781E032810D841F208610020C2F2EE
:1059C00000010023002200BFEB5C013203EB8304E3
:1059D000D3B2BB4221F81400F6D308F0FDFE707A72
:1059E000D6F80A10002704224B4600970197FEF7CD
:1059F0008DFEB8F1000F0146484602D007F076FC54
:105A000001E007F039FB484608F062FE03B0BDE84C
:105A1000F08300BF5B434D4420307830345D20B8C4
:105A2000B4CEBBCDA8B5C03A20CDA8B5C0BAC5206C
:105A30003D2025640A0000002DE9F04182B00546B2
:105A400026A090460E4608F095FF66B142F6044740
:105A50006C1EC0F6010700BF14F8011F384608F09D
:105A600089FF013EF8D10A2009F05AFC182006F0FF
:105A700017FA41F20862064605F112000021C2F24F
:105A800000020023DFB2C75954180433C4F802706F
:105A9000DBB2C7580A31282903F10403C4F80670A1
:105AA000F0D108F099FE687AD5F80A1000270B2289
:105AB000334600970197FEF729FEB8F1000F014623
:105AC000304602D007F012FC01E007F0D5FA30466C
:105AD00008F0FEFD02B0BDE8F08100BF5B434D441D
